{
  "contractName": "myContract3",
  "abi": [
    {
      "inputs": [
        {
          "internalType": "uint256",
          "name": "bid",
          "type": "uint256"
        },
        {
          "internalType": "uint256",
          "name": "sensor_id",
          "type": "uint256"
        },
        {
          "internalType": "uint256",
          "name": "area_id",
          "type": "uint256"
        },
        {
          "internalType": "uint256",
          "name": "location_id",
          "type": "uint256"
        },
        {
          "internalType": "string",
          "name": "time",
          "type": "string"
        },
        {
          "internalType": "string",
          "name": "date",
          "type": "string"
        },
        {
          "internalType": "uint256",
          "name": "sensorType",
          "type": "uint256"
        },
        {
          "internalType": "uint256",
          "name": "sensorData",
          "type": "uint256"
        }
      ],
      "name": "add",
      "outputs": [],
      "stateMutability": "nonpayable",
      "type": "function"
    },
    {
      "inputs": [
        {
          "internalType": "uint256",
          "name": "out",
          "type": "uint256"
        }
      ],
      "name": "read",
      "outputs": [
        {
          "components": [
            {
              "internalType": "uint256",
              "name": "id",
              "type": "uint256"
            },
            {
              "internalType": "uint256",
              "name": "sensor_id",
              "type": "uint256"
            },
            {
              "internalType": "uint256",
              "name": "area_id",
              "type": "uint256"
            },
            {
              "internalType": "uint256",
              "name": "location_id",
              "type": "uint256"
            },
            {
              "internalType": "uint256",
              "name": "bid",
              "type": "uint256"
            },
            {
              "internalType": "string",
              "name": "time",
              "type": "string"
            },
            {
              "internalType": "string",
              "name": "date",
              "type": "string"
            },
            {
              "internalType": "uint256",
              "name": "sensorType",
              "type": "uint256"
            },
            {
              "internalType": "uint256",
              "name": "sensorData",
              "type": "uint256"
            },
            {
              "internalType": "bool",
              "name": "isOut",
              "type": "bool"
            }
          ],
          "internalType": "struct myContract3.Sensor[]",
          "name": "",
          "type": "tuple[]"
        }
      ],
      "stateMutability": "view",
      "type": "function",
      "constant": true
    }
  ],
  "bytecode": "0x608060405234801561001057600080fd5b50611277806100206000396000f3fe608060405234801561001057600080fd5b50600436106100365760003560e01c80635f03f8821461003b578063ed2e5a9714610057575b600080fd5b61005560048036038101906100509190610d53565b610087565b005b610071600480360381019061006c9190610e41565b6102f4565b60405161007e91906110c3565b60405180910390f35b61008f6109c4565b61009982826109df565b156101ca576100a6610a9d565b60026040518061014001604052806100bc610ab8565b81526020018981526020018881526020018781526020018a81526020018681526020018581526020018481526020018381526020016001151581525090806001815401808255809150506001900390600052602060002090600a0201600090919091909150600082015181600001556020820151816001015560408201518160020155606082015181600301556080820151816004015560a082015181600501908051906020019061016f929190610acb565b5060c082015181600601908051906020019061018c929190610acb565b5060e0820151816007015561010082015181600801556101208201518160090160006101000a81548160ff02191690831515021790555050506102ea565b60026040518061014001604052806101e0610ab8565b81526020018981526020018881526020018781526020018a81526020018681526020018581526020018481526020018381526020016000151581525090806001815401808255809150506001900390600052602060002090600a0201600090919091909150600082015181600001556020820151816001015560408201518160020155606082015181600301556080820151816004015560a0820151816005019080519060200190610293929190610acb565b5060c08201518160060190805190602001906102b0929190610acb565b5060e0820151816007015561010082015181600801556101208201518160090160006101000a81548160ff02191690831515021790555050505b5050505050505050565b6060600182036107de576000610308610ac1565b905060008167ffffffffffffffff81111561032657610325610c28565b5b60405190808252806020026020018201604052801561035f57816020015b61034c610b51565b8152602001906001900390816103445790505b5090506000805b6002805490508110156107d257600115156002828154811061038b5761038a6110e5565b5b90600052602060002090600a020160090160009054906101000a900460ff161515036107bf57600281815481106103c5576103c46110e5565b5b90600052602060002090600a0201600001548383815181106103ea576103e96110e5565b5b602002602001015160000181815250506002818154811061040e5761040d6110e5565b5b90600052602060002090600a020160010154838381518110610433576104326110e5565b5b602002602001015161010001818152505060028181548110610458576104576110e5565b5b90600052602060002090600a02016002015483838151811061047d5761047c6110e5565b5b60200260200101516040018181525050600281815481106104a1576104a06110e5565b5b90600052602060002090600a0201600301548383815181106104c6576104c56110e5565b5b60200260200101516060018181525050600281815481106104ea576104e96110e5565b5b90600052602060002090600a02016004015483838151811061050f5761050e6110e5565b5b6020026020010151608001818152505060028181548110610533576105326110e5565b5b90600052602060002090600a0201600501805461054f90611143565b80601f016020809104026020016040519081016040528092919081815260200182805461057b90611143565b80156105c85780601f1061059d576101008083540402835291602001916105c8565b820191906000526020600020905b8154815290600101906020018083116105ab57829003601f168201915b50505050508383815181106105e0576105df6110e5565b5b602002602001015160a0018190525060028181548110610603576106026110e5565b5b90600052602060002090600a0201600601805461061f90611143565b80601f016020809104026020016040519081016040528092919081815260200182805461064b90611143565b80156106985780601f1061066d57610100808354040283529160200191610698565b820191906000526020600020905b81548152906001019060200180831161067b57829003601f168201915b50505050508383815181106106b0576106af6110e5565b5b602002602001015160c00181905250600281815481106106d3576106d26110e5565b5b90600052602060002090600a0201600701548383815181106106f8576106f76110e5565b5b602002602001015160e00181815250506002818154811061071c5761071b6110e5565b5b90600052602060002090600a020160080154838381518110610741576107406110e5565b5b602002602001015161010001818152505060028181548110610766576107656110e5565b5b90600052602060002090600a020160090160009054906101000a900460ff16838381518110610798576107976110e5565b5b60200260200101516101200190151590811515815250506001826107bc91906111a3565b91505b80806107ca906111f9565b915050610366565b508193505050506109bf565b6002805480602002602001604051908101604052809291908181526020016000905b828210156109b857838290600052602060002090600a020160405180610140016040529081600082015481526020016001820154815260200160028201548152602001600382015481526020016004820154815260200160058201805461086690611143565b80601f016020809104026020016040519081016040528092919081815260200182805461089290611143565b80156108df5780601f106108b4576101008083540402835291602001916108df565b820191906000526020600020905b8154815290600101906020018083116108c257829003601f168201915b505050505081526020016006820180546108f890611143565b80601f016020809104026020016040519081016040528092919081815260200182805461092490611143565b80156109715780601f1061094657610100808354040283529160200191610971565b820191906000526020600020905b81548152906001019060200180831161095457829003601f168201915b5050505050815260200160078201548152602001600882015481526020016009820160009054906101000a900460ff16151515158152505081526020019060010190610800565b5050505090505b919050565b60016000808282546109d691906111a3565b92505081905550565b600080831480156109fb575060198210806109fa5750602382115b5b15610a095760019050610a97565b600183148015610a1a575060288210155b15610a285760019050610a97565b600283148015610a3a57506101f48210155b15610a485760019050610a97565b600383148015610a59575060c88210155b15610a675760019050610a97565b600483148015610a845750600482111580610a83575060098210155b5b15610a925760019050610a97565b600090505b92915050565b6001806000828254610aaf91906111a3565b92505081905550565b60008054905090565b6000600154905090565b828054610ad790611143565b90600052602060002090601f016020900481019282610af95760008555610b40565b82601f10610b1257805160ff1916838001178555610b40565b82800160010185558215610b40579182015b82811115610b3f578251825591602001919060010190610b24565b5b509050610b4d9190610ba6565b5090565b6040518061014001604052806000815260200160008152602001600081526020016000815260200160008152602001606081526020016060815260200160008152602001600081526020016000151581525090565b5b80821115610bbf576000816000905550600101610ba7565b5090565b6000604051905090565b600080fd5b600080fd5b6000819050919050565b610bea81610bd7565b8114610bf557600080fd5b50565b600081359050610c0781610be1565b92915050565b600080fd5b600080fd5b6000601f19601f8301169050919050565b7f4e487b7100000000000000000000000000000000000000000000000000000000600052604160045260246000fd5b610c6082610c17565b810181811067ffffffffffffffff82111715610c7f57610c7e610c28565b5b80604052505050565b6000610c92610bc3565b9050610c9e8282610c57565b919050565b600067ffffffffffffffff821115610cbe57610cbd610c28565b5b610cc782610c17565b9050602081019050919050565b82818337600083830152505050565b6000610cf6610cf184610ca3565b610c88565b905082815260208101848484011115610d1257610d11610c12565b5b610d1d848285610cd4565b509392505050565b600082601f830112610d3a57610d39610c0d565b5b8135610d4a848260208601610ce3565b91505092915050565b600080600080600080600080610100898b031215610d7457610d73610bcd565b5b6000610d828b828c01610bf8565b9850506020610d938b828c01610bf8565b9750506040610da48b828c01610bf8565b9650506060610db58b828c01610bf8565b955050608089013567ffffffffffffffff811115610dd657610dd5610bd2565b5b610de28b828c01610d25565b94505060a089013567ffffffffffffffff811115610e0357610e02610bd2565b5b610e0f8b828c01610d25565b93505060c0610e208b828c01610bf8565b92505060e0610e318b828c01610bf8565b9150509295985092959890939650565b600060208284031215610e5757610e56610bcd565b5b6000610e6584828501610bf8565b91505092915050565b600081519050919050565b600082825260208201905092915050565b6000819050602082019050919050565b610ea381610bd7565b82525050565b600081519050919050565b600082825260208201905092915050565b60005b83811015610ee3578082015181840152602081019050610ec8565b83811115610ef2576000848401525b50505050565b6000610f0382610ea9565b610f0d8185610eb4565b9350610f1d818560208601610ec5565b610f2681610c17565b840191505092915050565b60008115159050919050565b610f4681610f31565b82525050565b600061014083016000830151610f656000860182610e9a565b506020830151610f786020860182610e9a565b506040830151610f8b6040860182610e9a565b506060830151610f9e6060860182610e9a565b506080830151610fb16080860182610e9a565b5060a083015184820360a0860152610fc98282610ef8565b91505060c083015184820360c0860152610fe38282610ef8565b91505060e0830151610ff860e0860182610e9a565b5061010083015161100d610100860182610e9a565b50610120830151611022610120860182610f3d565b508091505092915050565b60006110398383610f4c565b905092915050565b6000602082019050919050565b600061105982610e6e565b6110638185610e79565b93508360208202850161107585610e8a565b8060005b858110156110b15784840389528151611092858261102d565b945061109d83611041565b925060208a01995050600181019050611079565b50829750879550505050505092915050565b600060208201905081810360008301526110dd818461104e565b905092915050565b7f4e487b7100000000000000000000000000000000000000000000000000000000600052603260045260246000fd5b7f4e487b7100000000000000000000000000000000000000000000000000000000600052602260045260246000fd5b6000600282049050600182168061115b57607f821691505b60208210810361116e5761116d611114565b5b50919050565b7f4e487b7100000000000000000000000000000000000000000000000000000000600052601160045260246000fd5b60006111ae82610bd7565b91506111b983610bd7565b9250827fffffffffffffffffffffffffffffffffffffffffffffffffffffffffffffffff038211156111ee576111ed611174565b5b828201905092915050565b600061120482610bd7565b91507fffffffffffffffffffffffffffffffffffffffffffffffffffffffffffffffff820361123657611235611174565b5b60018201905091905056fea2646970667358221220f94f04ed88538f85ef1113eca9c7b4d1f01b5418856e334f249b08236950bd7b64736f6c634300080e0033",
  "immutableReferences": {},
  "source": "pragma solidity 0.8.14;\n\ncontract myContract3{\n\n\n\n    struct Sensor{\n        uint id;\n        uint sensor_id;\n        uint area_id;\n        uint location_id;\n        uint bid;\n        string time;\n        string date;\n        uint sensorType;\n        uint sensorData;\n        bool isOut;\n        \n    }\n\n    uint256 count;\n    uint256 outCount;\n    Sensor[] items;\n\n    function add(\n        uint bid,\n        uint sensor_id,\n        uint area_id,\n        uint location_id,\n        string memory time,\n        string memory date,\n        uint sensorType,\n        uint sensorData\n    ) public \n    {\n        incrementCount();\n        if(isOut(sensorType, sensorData)){\n            incrementOutCount();\n            items.push(Sensor(getCount(),sensor_id,area_id,location_id,bid,time,date,sensorType,sensorData,true));\n        }\n        else{\n            items.push(Sensor(getCount(),sensor_id,area_id,location_id,bid,time,date,sensorType,sensorData,false));\n        }\n    }\n\n    function read(uint out) public view returns (Sensor[] memory)\n    {\n        if(out == 1){\n         uint size = getOutCount();\n         Sensor[] memory outlierArray = new Sensor[](size);\n         uint index = 0;\n         for(uint ii = 0; ii< items.length; ii++ ){\n             if(items[ii].isOut == true){\n                outlierArray[index].id = items[ii].id;\n                outlierArray[index].sensorData = items[ii].sensor_id;\n                outlierArray[index].area_id = items[ii].area_id;\n                outlierArray[index].location_id = items[ii].location_id;\n                outlierArray[index].bid = items[ii].bid;\n                outlierArray[index].time = items[ii].time;\n                outlierArray[index].date = items[ii].date;\n                outlierArray[index].sensorType = items[ii].sensorType;\n                outlierArray[index].sensorData = items[ii].sensorData;\n                outlierArray[index].isOut = items[ii].isOut;\n                index = index + 1;\n             }\n         }\n\n         return outlierArray;\n         \n        }\n        else{\n            return items;\n        }\n    }\n\n    function incrementCount() private {\n        count += 1;\n    }\n    function incrementOutCount() private {\n        outCount += 1;\n    }\n\n    function getCount() private view returns(uint) {\n        return count;\n    }\n\n    function getOutCount() private view returns(uint) {\n        return outCount;\n    }\n    function isOut(uint sensorType, uint data) private pure returns(bool) {\n        // TEMPERATURE\n        if(sensorType == 0 && (data < 25 || data > 35 )){\n            return true;\n        }\n        // air Humidity\n        else if(sensorType == 1 && (data >= 40)){\n            return true;\n        }\n        // Soil Moisture\n        else if(sensorType == 2 && (data >= 500 )){\n            return true;\n        }\n        // AQI \n        else if(sensorType == 3 && (data >= 200 )){\n            return true;\n        }\n        // PH sensor \n        else if(sensorType == 4 && (data <= 4 || data >= 9 )){\n            return true;\n        }\n\n        return false;\n    }\n}\n",
  "sourcePath": "/home/ubuntu/privateBlockchain/truffle/contracts/myContract3.sol",
  "compiler": {
    "name": "solc",
    "version": "0.8.14+commit.80d49f37.Emscripten.clang"
  },
  "schemaVersion": "3.4.7",
  "updatedAt": "2022-07-20T16:51:18.106Z",
  "networkType": "ethereum",
  "devdoc": {
    "kind": "dev",
    "methods": {},
    "version": 1
  },
  "userdoc": {
    "kind": "user",
    "methods": {},
    "version": 1
  }
}